:100000000C942A000C9447000C9447000C94470071
:100010000C9447000C9447000C9447000C94470044
:100020000C9447000C9447000C9447000C94470034
:100030000C9447000C9447000C9447000C94470024
:100040000C9447000C9447000C9447000C94470014
:100050000C94470011241FBECFE5D8E0DEBFCDBF12
:1000600010E0A0E6B0E0E0EFF1E002C005900D92F4
:10007000A437B107D9F720E0A4E7B0E001C01D9292
:10008000A43FB207E1F70E9477000C94F6000C94AD
:10009000000080EC87B982E886B90895CF93DF939A
:1000A00000D000D0CDB7DEB780EC87B9369A349A4D
:1000B00084B190E09A83898385B190E09C838B839F
:1000C0008B819C81982F88279C838B838B819C813B
:1000D00029813A81822B932B9C838B838B819C81FA
:1000E0000F900F900F900F90DF91CF91089581B3F3
:1000F000806C81BB82B3806C82BB84B38FEF84BB86
:100100000E944900C0E0D0E00F2EFAE0CF2ED12CA3
:10011000E12CF12CF02D00E010E00E944E00BC011B
:1001200080E090E0A70196010E94B500FE01EE0F6D
:10013000FF1FEE0FFF1FEC58FF4F208331834283D8
:100140005383220F331FF901E05AFF4F808185BB93
:100150008FE39CE90197F1F700C000002196C031C0
:10016000D105DCF2C02FD12FD8CF052E97FB1EF47E
:1001700000940E94CC0057FD07D00E94D40007FCD9
:1001800003D04EF40C94CC005095409530952195B9
:100190003F4F4F4F5F4F08959095809570956195B3
:1001A0007F4F8F4F9F4F0895A1E21A2EAA1BBB1BB2
:1001B000FD010DC0AA1FBB1FEE1FFF1FA217B30733
:1001C000E407F50720F0A21BB30BE40BF50B661F49
:1001D000771F881F991F1A9469F76095709580950D
:1001E00090959B01AC01BD01CF010895F894FFCF1C
:1001F000000000000100030007000F001F003F0087
:040200007F00FF007C
:00000001FF
